{
  "abi": [
    {
      "type": "function",
      "name": "campaigns",
      "inputs": [
        {
          "name": "",
          "type": "uint256",
          "internalType": "uint256"
        }
      ],
      "outputs": [
        {
          "name": "title",
          "type": "string",
          "internalType": "string"
        },
        {
          "name": "description",
          "type": "string",
          "internalType": "string"
        },
        {
          "name": "creator",
          "type": "address",
          "internalType": "address"
        },
        {
          "name": "goal",
          "type": "uint256",
          "internalType": "uint256"
        },
        {
          "name": "pledged",
          "type": "uint256",
          "internalType": "uint256"
        },
        {
          "name": "startAt",
          "type": "uint32",
          "internalType": "uint32"
        },
        {
          "name": "endAt",
          "type": "uint32",
          "internalType": "uint32"
        },
        {
          "name": "claimed",
          "type": "bool",
          "internalType": "bool"
        }
      ],
      "stateMutability": "view"
    },
    {
      "type": "function",
      "name": "cancel",
      "inputs": [
        {
          "name": "_id",
          "type": "uint256",
          "internalType": "uint256"
        }
      ],
      "outputs": [],
      "stateMutability": "nonpayable"
    },
    {
      "type": "function",
      "name": "claim",
      "inputs": [
        {
          "name": "_id",
          "type": "uint256",
          "internalType": "uint256"
        }
      ],
      "outputs": [],
      "stateMutability": "nonpayable"
    },
    {
      "type": "function",
      "name": "count",
      "inputs": [],
      "outputs": [
        {
          "name": "",
          "type": "uint256",
          "internalType": "uint256"
        }
      ],
      "stateMutability": "view"
    },
    {
      "type": "function",
      "name": "launch",
      "inputs": [
        {
          "name": "_title",
          "type": "string",
          "internalType": "string"
        },
        {
          "name": "_description",
          "type": "string",
          "internalType": "string"
        },
        {
          "name": "_goal",
          "type": "uint256",
          "internalType": "uint256"
        },
        {
          "name": "_startAt",
          "type": "uint32",
          "internalType": "uint32"
        },
        {
          "name": "_endAt",
          "type": "uint32",
          "internalType": "uint32"
        }
      ],
      "outputs": [],
      "stateMutability": "nonpayable"
    },
    {
      "type": "function",
      "name": "pledge",
      "inputs": [
        {
          "name": "_id",
          "type": "uint256",
          "internalType": "uint256"
        }
      ],
      "outputs": [],
      "stateMutability": "payable"
    },
    {
      "type": "function",
      "name": "pledgedAmount",
      "inputs": [
        {
          "name": "",
          "type": "uint256",
          "internalType": "uint256"
        },
        {
          "name": "",
          "type": "address",
          "internalType": "address"
        }
      ],
      "outputs": [
        {
          "name": "",
          "type": "uint256",
          "internalType": "uint256"
        }
      ],
      "stateMutability": "view"
    },
    {
      "type": "function",
      "name": "refund",
      "inputs": [
        {
          "name": "_id",
          "type": "uint256",
          "internalType": "uint256"
        }
      ],
      "outputs": [],
      "stateMutability": "nonpayable"
    },
    {
      "type": "function",
      "name": "unpledge",
      "inputs": [
        {
          "name": "_id",
          "type": "uint256",
          "internalType": "uint256"
        },
        {
          "name": "_amount",
          "type": "uint256",
          "internalType": "uint256"
        }
      ],
      "outputs": [],
      "stateMutability": "nonpayable"
    },
    {
      "type": "event",
      "name": "Cancel",
      "inputs": [
        {
          "name": "id",
          "type": "uint256",
          "indexed": false,
          "internalType": "uint256"
        }
      ],
      "anonymous": false
    },
    {
      "type": "event",
      "name": "Claim",
      "inputs": [
        {
          "name": "id",
          "type": "uint256",
          "indexed": false,
          "internalType": "uint256"
        }
      ],
      "anonymous": false
    },
    {
      "type": "event",
      "name": "Launch",
      "inputs": [
        {
          "name": "id",
          "type": "uint256",
          "indexed": false,
          "internalType": "uint256"
        },
        {
          "name": "creator",
          "type": "address",
          "indexed": true,
          "internalType": "address"
        },
        {
          "name": "goal",
          "type": "uint256",
          "indexed": false,
          "internalType": "uint256"
        },
        {
          "name": "startAt",
          "type": "uint32",
          "indexed": false,
          "internalType": "uint32"
        },
        {
          "name": "endAt",
          "type": "uint32",
          "indexed": false,
          "internalType": "uint32"
        }
      ],
      "anonymous": false
    },
    {
      "type": "event",
      "name": "Pledge",
      "inputs": [
        {
          "name": "id",
          "type": "uint256",
          "indexed": true,
          "internalType": "uint256"
        },
        {
          "name": "caller",
          "type": "address",
          "indexed": true,
          "internalType": "address"
        },
        {
          "name": "amount",
          "type": "uint256",
          "indexed": false,
          "internalType": "uint256"
        }
      ],
      "anonymous": false
    },
    {
      "type": "event",
      "name": "Refund",
      "inputs": [
        {
          "name": "id",
          "type": "uint256",
          "indexed": false,
          "internalType": "uint256"
        },
        {
          "name": "caller",
          "type": "address",
          "indexed": true,
          "internalType": "address"
        },
        {
          "name": "amount",
          "type": "uint256",
          "indexed": false,
          "internalType": "uint256"
        }
      ],
      "anonymous": false
    },
    {
      "type": "event",
      "name": "Unpledge",
      "inputs": [
        {
          "name": "id",
          "type": "uint256",
          "indexed": true,
          "internalType": "uint256"
        },
        {
          "name": "caller",
          "type": "address",
          "indexed": true,
          "internalType": "address"
        },
        {
          "name": "amount",
          "type": "uint256",
          "indexed": false,
          "internalType": "uint256"
        }
      ],
      "anonymous": false
    }
  ],
  "bytecode": {
    "object": "0x6080604052348015600e575f5ffd5b506124928061001c5f395ff3fe608060405260043610610085575f3560e01c806340e58ee51161005857806340e58ee514610146578063711853ab1461016e5780637326c9c014610196578063aa4fb63a146101b2578063f0580336146101ee57610085565b806306661abd14610089578063141961bc146100b3578063278ecde1146100f6578063379607f51461011e575b5f5ffd5b348015610094575f5ffd5b5061009d610216565b6040516100aa91906115f6565b60405180910390f35b3480156100be575f5ffd5b506100d960048036038101906100d4919061164a565b61021b565b6040516100ed98979695949392919061175c565b60405180910390f35b348015610101575f5ffd5b5061011c6004803603810190610117919061164a565b6103b6565b005b348015610129575f5ffd5b50610144600480360381019061013f919061164a565b61083b565b005b348015610151575f5ffd5b5061016c6004803603810190610167919061164a565b610ade565b005b348015610179575f5ffd5b50610194600480360381019061018f91906117e6565b610e8b565b005b6101b060048036038101906101ab919061164a565b611104565b005b3480156101bd575f5ffd5b506101d860048036038101906101d3919061184e565b6112a0565b6040516101e591906115f6565b60405180910390f35b3480156101f9575f5ffd5b50610214600480360381019061020f91906119e2565b6112c0565b005b5f5481565b6001602052805f5260405f205f91509050805f01805461023a90611abe565b80601f016020809104026020016040519081016040528092919081815260200182805461026690611abe565b80156102b15780601f10610288576101008083540402835291602001916102b1565b820191905f5260205f20905b81548152906001019060200180831161029457829003601f168201915b5050505050908060010180546102c690611abe565b80601f01602080910402602001604051908101604052809291908181526020018280546102f290611abe565b801561033d5780601f106103145761010080835404028352916020019161033d565b820191905f5260205f20905b81548152906001019060200180831161032057829003601f168201915b505050505090806002015f9054906101000a900473ffffffffffffffffffffffffffffffffffffffff1690806003015490806004015490806005015f9054906101000a900463ffffffff16908060050160049054906101000a900463ffffffff16908060050160089054906101000a900460ff16905088565b5f60015f8381526020019081526020015f20604051806101000160405290815f820180546103e390611abe565b80601f016020809104026020016040519081016040528092919081815260200182805461040f90611abe565b801561045a5780601f106104315761010080835404028352916020019161045a565b820191905f5260205f20905b81548152906001019060200180831161043d57829003601f168201915b5050505050815260200160018201805461047390611abe565b80601f016020809104026020016040519081016040528092919081815260200182805461049f90611abe565b80156104ea5780601f106104c1576101008083540402835291602001916104ea565b820191905f5260205f20905b8154815290600101906020018083116104cd57829003601f168201915b50505050508152602001600282015f9054906101000a900473ffffffffffffffffffffffffffffffffffffffff1673ffffffffffffffffffffffffffffffffffffffff1673ffffffffffffffffffffffffffffffffffffffff1681526020016003820154815260200160048201548152602001600582015f9054906101000a900463ffffffff1663ffffffff1663ffffffff1681526020016005820160049054906101000a900463ffffffff1663ffffffff1663ffffffff1681526020016005820160089054906101000a900460ff16151515158152505090508060c0015163ffffffff164211610610576040517f08c379a000000000000000000000000000000000000000000000000000000000815260040161060790611b38565b60405180910390fd5b806060015181608001511061065a576040517f08c379a000000000000000000000000000000000000000000000000000000000815260040161065190611ba0565b60405180910390fd5b5f60025f8481526020019081526020015f205f3373ffffffffffffffffffffffffffffffffffffffff1673ffffffffffffffffffffffffffffffffffffffff1681526020019081526020015f205490505f81116106ec576040517f08c379a00000000000000000000000000000000000000000000000000000000081526004016106e390611c08565b60405180910390fd5b5f60025f8581526020019081526020015f205f3373ffffffffffffffffffffffffffffffffffffffff1673ffffffffffffffffffffffffffffffffffffffff1681526020019081526020015f20819055505f3373ffffffffffffffffffffffffffffffffffffffff168260405161076290611c53565b5f6040518083038185875af1925050503d805f811461079c576040519150601f19603f3d011682016040523d82523d5f602084013e6107a1565b606091505b50509050806107e5576040517f08c379a00000000000000000000000000000000000000000000000000000000081526004016107dc90611cb1565b60405180910390fd5b3373ffffffffffffffffffffffffffffffffffffffff167f21e12a7cad0da5928167e1084ea4d5fdf8d9af66657a2543a9ac76a0ca081477858460405161082d929190611ccf565b60405180910390a250505050565b5f60015f8381526020019081526020015f2090503373ffffffffffffffffffffffffffffffffffffffff16816002015f9054906101000a900473ffffffffffffffffffffffffffffffffffffffff1673ffffffffffffffffffffffffffffffffffffffff16146108e0576040517f08c379a00000000000000000000000000000000000000000000000000000000081526004016108d790611d40565b60405180910390fd5b8060050160049054906101000a900463ffffffff1663ffffffff16421161093c576040517f08c379a000000000000000000000000000000000000000000000000000000000815260040161093390611b38565b60405180910390fd5b806003015481600401541015610987576040517f08c379a000000000000000000000000000000000000000000000000000000000815260040161097e90611da8565b60405180910390fd5b8060050160089054906101000a900460ff16156109d9576040517f08c379a00000000000000000000000000000000000000000000000000000000081526004016109d090611e10565b60405180910390fd5b60018160050160086101000a81548160ff0219169083151502179055505f3373ffffffffffffffffffffffffffffffffffffffff168260040154604051610a1f90611c53565b5f6040518083038185875af1925050503d805f8114610a59576040519150601f19603f3d011682016040523d82523d5f602084013e610a5e565b606091505b5050905080610aa2576040517f08c379a0000000000000000000000000000000000000000000000000000000008152600401610a9990611cb1565b60405180910390fd5b7f7bb2b3c10797baccb6f8c4791f1edd6ca2f0d028ee0eda64b01a9a57e3a653f783604051610ad191906115f6565b60405180910390a1505050565b5f60015f8381526020019081526020015f20604051806101000160405290815f82018054610b0b90611abe565b80601f0160208091040260200160405190810160405280929190818152602001828054610b3790611abe565b8015610b825780601f10610b5957610100808354040283529160200191610b82565b820191905f5260205f20905b815481529060010190602001808311610b6557829003601f168201915b50505050508152602001600182018054610b9b90611abe565b80601f0160208091040260200160405190810160405280929190818152602001828054610bc790611abe565b8015610c125780601f10610be957610100808354040283529160200191610c12565b820191905f5260205f20905b815481529060010190602001808311610bf557829003601f168201915b50505050508152602001600282015f9054906101000a900473ffffffffffffffffffffffffffffffffffffffff1673ffffffffffffffffffffffffffffffffffffffff1673ffffffffffffffffffffffffffffffffffffffff1681526020016003820154815260200160048201548152602001600582015f9054906101000a900463ffffffff1663ffffffff1663ffffffff1681526020016005820160049054906101000a900463ffffffff1663ffffffff1663ffffffff1681526020016005820160089054906101000a900460ff16151515158152505090503373ffffffffffffffffffffffffffffffffffffffff16816040015173ffffffffffffffffffffffffffffffffffffffff1614610d5e576040517f08c379a0000000000000000000000000000000000000000000000000000000008152600401610d5590611d40565b60405180910390fd5b8060a0015163ffffffff164210610daa576040517f08c379a0000000000000000000000000000000000000000000000000000000008152600401610da190611e78565b60405180910390fd5b60015f8381526020019081526020015f205f5f82015f610dca9190611587565b600182015f610dd99190611587565b600282015f6101000a81549073ffffffffffffffffffffffffffffffffffffffff0219169055600382015f9055600482015f9055600582015f6101000a81549063ffffffff02191690556005820160046101000a81549063ffffffff02191690556005820160086101000a81549060ff021916905550507f8bf30e7ff26833413be5f69e1d373744864d600b664204b4a2f9844a8eedb9ed82604051610e7f91906115f6565b60405180910390a15050565b5f60015f8481526020019081526020015f2090508060050160049054906101000a900463ffffffff1663ffffffff16421115610efc576040517f08c379a0000000000000000000000000000000000000000000000000000000008152600401610ef390611ee0565b60405180910390fd5b8160025f8581526020019081526020015f205f3373ffffffffffffffffffffffffffffffffffffffff1673ffffffffffffffffffffffffffffffffffffffff1681526020019081526020015f20541015610f8b576040517f08c379a0000000000000000000000000000000000000000000000000000000008152600401610f8290611f48565b60405180910390fd5b81816004015f828254610f9e9190611f93565b925050819055508160025f8581526020019081526020015f205f3373ffffffffffffffffffffffffffffffffffffffff1673ffffffffffffffffffffffffffffffffffffffff1681526020019081526020015f205f8282546110009190611f93565b925050819055505f3373ffffffffffffffffffffffffffffffffffffffff168360405161102c90611c53565b5f6040518083038185875af1925050503d805f8114611066576040519150601f19603f3d011682016040523d82523d5f602084013e61106b565b606091505b50509050806110af576040517f08c379a00000000000000000000000000000000000000000000000000000000081526004016110a690611cb1565b60405180910390fd5b3373ffffffffffffffffffffffffffffffffffffffff16847f2eeeab891b26a214d1b25749f88a406bdea852bd8c9bfda977e0ef8114c180ba856040516110f691906115f6565b60405180910390a350505050565b5f60015f8381526020019081526020015f209050806005015f9054906101000a900463ffffffff1663ffffffff16421015611174576040517f08c379a000000000000000000000000000000000000000000000000000000000815260040161116b90612010565b60405180910390fd5b8060050160049054906101000a900463ffffffff1663ffffffff164211156111d1576040517f08c379a00000000000000000000000000000000000000000000000000000000081526004016111c890611ee0565b60405180910390fd5b34816004015f8282546111e4919061202e565b925050819055503460025f8481526020019081526020015f205f3373ffffffffffffffffffffffffffffffffffffffff1673ffffffffffffffffffffffffffffffffffffffff1681526020019081526020015f205f828254611246919061202e565b925050819055503373ffffffffffffffffffffffffffffffffffffffff16827f06bdb975df800a73232998e71ed585d536222f1dfeaa622d7f62a23ada686c823460405161129491906115f6565b60405180910390a35050565b6002602052815f5260405f20602052805f5260405f205f91509150505481565b428263ffffffff161015611309576040517f08c379a0000000000000000000000000000000000000000000000000000000008152600401611300906120ab565b60405180910390fd5b8163ffffffff168163ffffffff161015611358576040517f08c379a000000000000000000000000000000000000000000000000000000000815260040161134f90612113565b60405180910390fd5b6276a70042611367919061202e565b8163ffffffff1611156113af576040517f08c379a00000000000000000000000000000000000000000000000000000000081526004016113a69061217b565b60405180910390fd5b60015f5f8282546113c0919061202e565b925050819055506040518061010001604052808681526020018581526020013373ffffffffffffffffffffffffffffffffffffffff1681526020018481526020015f81526020018363ffffffff1681526020018263ffffffff1681526020015f151581525060015f5f5481526020019081526020015f205f820151815f01908161144a919061234a565b506020820151816001019081611460919061234a565b506040820151816002015f6101000a81548173ffffffffffffffffffffffffffffffffffffffff021916908373ffffffffffffffffffffffffffffffffffffffff160217905550606082015181600301556080820151816004015560a0820151816005015f6101000a81548163ffffffff021916908363ffffffff16021790555060c08201518160050160046101000a81548163ffffffff021916908363ffffffff16021790555060e08201518160050160086101000a81548160ff0219169083151502179055509050503373ffffffffffffffffffffffffffffffffffffffff167f0601cd0d650b473037e838a2696d41e654433d065b3f56b28d1d3302e44a304f5f548585856040516115789493929190612419565b60405180910390a25050505050565b50805461159390611abe565b5f825580601f106115a55750506115bf565b601f0160209004905f5260205f20906115be91906115c1565b5b565b5f5b808211156115d9578281015f90556001016115c3565b505050565b5f819050919050565b6115f0816115de565b82525050565b5f6020820190506116095f8301846115e7565b92915050565b5f604051905090565b5f5ffd5b5f5ffd5b611629816115de565b8114611633575f5ffd5b50565b5f8135905061164481611620565b92915050565b5f6020828403121561165f5761165e611618565b5b5f61166c84828501611636565b91505092915050565b5f81519050919050565b5f82825260208201905092915050565b8281835e5f83830152505050565b5f601f19601f8301169050919050565b5f6116b782611675565b6116c1818561167f565b93506116d181856020860161168f565b6116da8161169d565b840191505092915050565b5f73ffffffffffffffffffffffffffffffffffffffff82169050919050565b5f61170e826116e5565b9050919050565b61171e81611704565b82525050565b5f63ffffffff82169050919050565b61173c81611724565b82525050565b5f8115159050919050565b61175681611742565b82525050565b5f610100820190508181035f830152611775818b6116ad565b90508181036020830152611789818a6116ad565b90506117986040830189611715565b6117a560608301886115e7565b6117b260808301876115e7565b6117bf60a0830186611733565b6117cc60c0830185611733565b6117d960e083018461174d565b9998505050505050505050565b5f5f604083850312156117fc576117fb611618565b5b5f61180985828601611636565b925050602061181a85828601611636565b9150509250929050565b61182d81611704565b8114611837575f5ffd5b50565b5f8135905061184881611824565b92915050565b5f5f6040838503121561186457611863611618565b5b5f61187185828601611636565b92505060206118828582860161183a565b9150509250929050565b5f5ffd5b5f5ffd5b7f4e487b71000000000000000000000000000000000000000000000000000000005f52604160045260245ffd5b6118ca8261169d565b810181811067ffffffffffffffff821117156118e9576118e8611894565b5b80604052505050565b5f6118fb61160f565b905061190782826118c1565b919050565b5f67ffffffffffffffff82111561192657611925611894565b5b61192f8261169d565b9050602081019050919050565b828183375f83830152505050565b5f61195c6119578461190c565b6118f2565b90508281526020810184848401111561197857611977611890565b5b61198384828561193c565b509392505050565b5f82601f83011261199f5761199e61188c565b5b81356119af84826020860161194a565b91505092915050565b6119c181611724565b81146119cb575f5ffd5b50565b5f813590506119dc816119b8565b92915050565b5f5f5f5f5f60a086880312156119fb576119fa611618565b5b5f86013567ffffffffffffffff811115611a1857611a1761161c565b5b611a248882890161198b565b955050602086013567ffffffffffffffff811115611a4557611a4461161c565b5b611a518882890161198b565b9450506040611a6288828901611636565b9350506060611a73888289016119ce565b9250506080611a84888289016119ce565b9150509295509295909350565b7f4e487b71000000000000000000000000000000000000000000000000000000005f52602260045260245ffd5b5f6002820490506001821680611ad557607f821691505b602082108103611ae857611ae7611a91565b5b50919050565b7f6e6f7420656e64656400000000000000000000000000000000000000000000005f82015250565b5f611b2260098361167f565b9150611b2d82611aee565b602082019050919050565b5f6020820190508181035f830152611b4f81611b16565b9050919050565b7f706c6564676564203e3d20676f616c00000000000000000000000000000000005f82015250565b5f611b8a600f8361167f565b9150611b9582611b56565b602082019050919050565b5f6020820190508181035f830152611bb781611b7e565b9050919050565b7f6e6f2062616c616e636520746f20726566756e640000000000000000000000005f82015250565b5f611bf260148361167f565b9150611bfd82611bbe565b602082019050919050565b5f6020820190508181035f830152611c1f81611be6565b9050919050565b5f81905092915050565b50565b5f611c3e5f83611c26565b9150611c4982611c30565b5f82019050919050565b5f611c5d82611c33565b9150819050919050565b7f5472616e73666572206661696c656400000000000000000000000000000000005f82015250565b5f611c9b600f8361167f565b9150611ca682611c67565b602082019050919050565b5f6020820190508181035f830152611cc881611c8f565b9050919050565b5f604082019050611ce25f8301856115e7565b611cef60208301846115e7565b9392505050565b7f6e6f742063726561746f720000000000000000000000000000000000000000005f82015250565b5f611d2a600b8361167f565b9150611d3582611cf6565b602082019050919050565b5f6020820190508181035f830152611d5781611d1e565b9050919050565b7f706c6564676564203c20676f616c0000000000000000000000000000000000005f82015250565b5f611d92600e8361167f565b9150611d9d82611d5e565b602082019050919050565b5f6020820190508181035f830152611dbf81611d86565b9050919050565b7f636c61696d6564000000000000000000000000000000000000000000000000005f82015250565b5f611dfa60078361167f565b9150611e0582611dc6565b602082019050919050565b5f6020820190508181035f830152611e2781611dee565b9050919050565b7f73746172746564000000000000000000000000000000000000000000000000005f82015250565b5f611e6260078361167f565b9150611e6d82611e2e565b602082019050919050565b5f6020820190508181035f830152611e8f81611e56565b9050919050565b7f656e6465640000000000000000000000000000000000000000000000000000005f82015250565b5f611eca60058361167f565b9150611ed582611e96565b602082019050919050565b5f6020820190508181035f830152611ef781611ebe565b9050919050565b7f696e73756666696369656e7420706c65646765000000000000000000000000005f82015250565b5f611f3260138361167f565b9150611f3d82611efe565b602082019050919050565b5f6020820190508181035f830152611f5f81611f26565b9050919050565b7f4e487b71000000000000000000000000000000000000000000000000000000005f52601160045260245ffd5b5f611f9d826115de565b9150611fa8836115de565b9250828203905081811115611fc057611fbf611f66565b5b92915050565b7f6e6f7420737461727465640000000000000000000000000000000000000000005f82015250565b5f611ffa600b8361167f565b915061200582611fc6565b602082019050919050565b5f6020820190508181035f83015261202781611fee565b9050919050565b5f612038826115de565b9150612043836115de565b925082820190508082111561205b5761205a611f66565b5b92915050565b7f7374617274206174203c206e6f770000000000000000000000000000000000005f82015250565b5f612095600e8361167f565b91506120a082612061565b602082019050919050565b5f6020820190508181035f8301526120c281612089565b9050919050565b7f656e64206174203c2073746172742061740000000000000000000000000000005f82015250565b5f6120fd60118361167f565b9150612108826120c9565b602082019050919050565b5f6020820190508181035f83015261212a816120f1565b9050919050565b7f656e64206174203e206d6178206475726174696f6e00000000000000000000005f82015250565b5f61216560158361167f565b915061217082612131565b602082019050919050565b5f6020820190508181035f83015261219281612159565b9050919050565b5f819050815f5260205f209050919050565b5f6020601f8301049050919050565b5f82821b905092915050565b5f600883026121f57fffffffffffffffffffffffffffffffffffffffffffffffffffffffffffffffff826121ba565b6121ff86836121ba565b95508019841693508086168417925050509392505050565b5f819050919050565b5f61223a612235612230846115de565b612217565b6115de565b9050919050565b5f819050919050565b61225383612220565b61226761225f82612241565b8484546121c6565b825550505050565b5f5f905090565b61227e61226f565b61228981848461224a565b505050565b5f5b828110156122af576122a45f828401612276565b600181019050612290565b505050565b601f8211156123025782821115612301576122ce81612199565b6122d7836121ab565b6122e0856121ab565b60208610156122ed575f90505b8083016122fc8284038261228e565b505050505b5b505050565b5f82821c905092915050565b5f6123225f1984600802612307565b1980831691505092915050565b5f61233a8383612313565b9150826002028217905092915050565b61235382611675565b67ffffffffffffffff81111561236c5761236b611894565b5b6123768254611abe565b6123818282856122b4565b5f60209050601f8311600181146123b2575f84156123a0578287015190505b6123aa858261232f565b865550612411565b601f1984166123c086612199565b5f5b828110156123e7578489015182556001820191506020850194506020810190506123c2565b868310156124045784890151612400601f891682612313565b8355505b6001600288020188555050505b505050505050565b5f60808201905061242c5f8301876115e7565b61243960208301866115e7565b6124466040830185611733565b6124536060830184611733565b9594505050505056fea2646970667358221220d7721a3705581761d1afc2831be03226728021647d05cb51366b2b0faa8a5fb264736f6c63430008230033",
    "linkReferences": {}
  },
  "methodIdentifiers": {
    "campaigns(uint256)": "141961bc",
    "cancel(uint256)": "40e58ee5",
    "claim(uint256)": "379607f5",
    "count()": "06661abd",
    "launch(string,string,uint256,uint32,uint32)": "f0580336",
    "pledge(uint256)": "7326c9c0",
    "pledgedAmount(uint256,address)": "aa4fb63a",
    "refund(uint256)": "278ecde1",
    "unpledge(uint256,uint256)": "711853ab"
  },
  "id": 0
}